{
  "contractName": "ETHTransfer",
  "abi": [
    {
      "inputs": [
        {
          "internalType": "address payable",
          "name": "to",
          "type": "address"
        },
        {
          "internalType": "string",
          "name": "message",
          "type": "string"
        }
      ],
      "name": "sendTransaction",
      "outputs": [],
      "stateMutability": "payable",
      "type": "function",
      "payable": true
    },
    {
      "inputs": [],
      "name": "getTransactions",
      "outputs": [
        {
          "components": [
            {
              "internalType": "address",
              "name": "account",
              "type": "address"
            },
            {
              "internalType": "string",
              "name": "message",
              "type": "string"
            },
            {
              "internalType": "uint256",
              "name": "amount",
              "type": "uint256"
            },
            {
              "internalType": "uint256",
              "name": "timestamp",
              "type": "uint256"
            },
            {
              "internalType": "enum ETHTransfer.TransactionType",
              "name": "txType",
              "type": "uint8"
            }
          ],
          "internalType": "struct ETHTransfer.Transaction[]",
          "name": "",
          "type": "tuple[]"
        }
      ],
      "stateMutability": "view",
      "type": "function",
      "constant": true
    }
  ],
  "bytecode": "0x608060405234801561001057600080fd5b50610cfd806100206000396000f3fe6080604052600436106100295760003560e01c80636387f9f61461002e57806383920e901461004a575b600080fd5b61004860048036038101906100439190610703565b610075565b005b34801561005657600080fd5b5061005f610379565b60405161006c91906109c7565b60405180910390f35b60003390506000808273ffffffffffffffffffffffffffffffffffffffff1673ffffffffffffffffffffffffffffffffffffffff1681526020019081526020016000206040518060a001604052808573ffffffffffffffffffffffffffffffffffffffff1681526020018481526020013481526020014281526020016000600181111561010557610104610844565b5b815250908060018154018082558091505060019003906000526020600020906005020160009091909190915060008201518160000160006101000a81548173ffffffffffffffffffffffffffffffffffffffff021916908373ffffffffffffffffffffffffffffffffffffffff160217905550602082015181600101908161018d9190610bf5565b50604082015181600201556060820151816003015560808201518160040160006101000a81548160ff021916908360018111156101cd576101cc610844565b5b021790555050506000808473ffffffffffffffffffffffffffffffffffffffff1673ffffffffffffffffffffffffffffffffffffffff1681526020019081526020016000206040518060a001604052808373ffffffffffffffffffffffffffffffffffffffff16815260200184815260200134815260200142815260200160018081111561025e5761025d610844565b5b815250908060018154018082558091505060019003906000526020600020906005020160009091909190915060008201518160000160006101000a81548173ffffffffffffffffffffffffffffffffffffffff021916908373ffffffffffffffffffffffffffffffffffffffff16021790555060208201518160010190816102e69190610bf5565b50604082015181600201556060820151816003015560808201518160040160006101000a81548160ff0219169083600181111561032657610325610844565b5b021790555050508273ffffffffffffffffffffffffffffffffffffffff166108fc349081150290604051600060405180830381858888f19350505050158015610373573d6000803e3d6000fd5b50505050565b60606000803373ffffffffffffffffffffffffffffffffffffffff1673ffffffffffffffffffffffffffffffffffffffff168152602001908152602001600020805480602002602001604051908101604052809291908181526020016000905b8282101561054257838290600052602060002090600502016040518060a00160405290816000820160009054906101000a900473ffffffffffffffffffffffffffffffffffffffff1673ffffffffffffffffffffffffffffffffffffffff1673ffffffffffffffffffffffffffffffffffffffff16815260200160018201805461046290610a18565b80601f016020809104026020016040519081016040528092919081815260200182805461048e90610a18565b80156104db5780601f106104b0576101008083540402835291602001916104db565b820191906000526020600020905b8154815290600101906020018083116104be57829003601f168201915b5050505050815260200160028201548152602001600382015481526020016004820160009054906101000a900460ff16600181111561051d5761051c610844565b5b600181111561052f5761052e610844565b5b81525050815260200190600101906103d9565b50505050905090565b6000604051905090565b600080fd5b600080fd5b600073ffffffffffffffffffffffffffffffffffffffff82169050919050565b600061058a8261055f565b9050919050565b61059a8161057f565b81146105a557600080fd5b50565b6000813590506105b781610591565b92915050565b600080fd5b600080fd5b6000601f19601f8301169050919050565b7f4e487b7100000000000000000000000000000000000000000000000000000000600052604160045260246000fd5b610610826105c7565b810181811067ffffffffffffffff8211171561062f5761062e6105d8565b5b80604052505050565b600061064261054b565b905061064e8282610607565b919050565b600067ffffffffffffffff82111561066e5761066d6105d8565b5b610677826105c7565b9050602081019050919050565b82818337600083830152505050565b60006106a66106a184610653565b610638565b9050828152602081018484840111156106c2576106c16105c2565b5b6106cd848285610684565b509392505050565b600082601f8301126106ea576106e96105bd565b5b81356106fa848260208601610693565b91505092915050565b6000806040838503121561071a57610719610555565b5b6000610728858286016105a8565b925050602083013567ffffffffffffffff8111156107495761074861055a565b5b610755858286016106d5565b9150509250929050565b600081519050919050565b600082825260208201905092915050565b6000819050602082019050919050565b60006107968261055f565b9050919050565b6107a68161078b565b82525050565b600081519050919050565b600082825260208201905092915050565b60005b838110156107e65780820151818401526020810190506107cb565b60008484015250505050565b60006107fd826107ac565b61080781856107b7565b93506108178185602086016107c8565b610820816105c7565b840191505092915050565b6000819050919050565b61083e8161082b565b82525050565b7f4e487b7100000000000000000000000000000000000000000000000000000000600052602160045260246000fd5b6002811061088457610883610844565b5b50565b600081905061089582610873565b919050565b60006108a582610887565b9050919050565b6108b58161089a565b82525050565b600060a0830160008301516108d3600086018261079d565b50602083015184820360208601526108eb82826107f2565b91505060408301516109006040860182610835565b5060608301516109136060860182610835565b50608083015161092660808601826108ac565b508091505092915050565b600061093d83836108bb565b905092915050565b6000602082019050919050565b600061095d8261075f565b610967818561076a565b9350836020820285016109798561077b565b8060005b858110156109b557848403895281516109968582610931565b94506109a183610945565b925060208a0199505060018101905061097d565b50829750879550505050505092915050565b600060208201905081810360008301526109e18184610952565b905092915050565b7f4e487b7100000000000000000000000000000000000000000000000000000000600052602260045260246000fd5b60006002820490506001821680610a3057607f821691505b602082108103610a4357610a426109e9565b5b50919050565b60008190508160005260206000209050919050565b60006020601f8301049050919050565b600082821b905092915050565b600060088302610aab7fffffffffffffffffffffffffffffffffffffffffffffffffffffffffffffffff82610a6e565b610ab58683610a6e565b95508019841693508086168417925050509392505050565b6000819050919050565b6000610af2610aed610ae88461082b565b610acd565b61082b565b9050919050565b6000819050919050565b610b0c83610ad7565b610b20610b1882610af9565b848454610a7b565b825550505050565b600090565b610b35610b28565b610b40818484610b03565b505050565b5b81811015610b6457610b59600082610b2d565b600181019050610b46565b5050565b601f821115610ba957610b7a81610a49565b610b8384610a5e565b81016020851015610b92578190505b610ba6610b9e85610a5e565b830182610b45565b50505b505050565b600082821c905092915050565b6000610bcc60001984600802610bae565b1980831691505092915050565b6000610be58383610bbb565b9150826002028217905092915050565b610bfe826107ac565b67ffffffffffffffff811115610c1757610c166105d8565b5b610c218254610a18565b610c2c828285610b68565b600060209050601f831160018114610c5f5760008415610c4d578287015190505b610c578582610bd9565b865550610cbf565b601f198416610c6d86610a49565b60005b82811015610c9557848901518255600182019150602085019450602081019050610c70565b86831015610cb25784890151610cae601f891682610bbb565b8355505b6001600288020188555050505b50505050505056fea264697066735822122081f9733a466daea1ff29aee91d5f0276ee870e211ef7a5b5cc9975fc3b49603b64736f6c63430008100033",
  "immutableReferences": {},
  "source": "// SPDX-License-Identifier: MIT\npragma solidity >=0.8.0 <0.9.0;\n\ncontract ETHTransfer {\n\n    enum TransactionType {\n        DEBIT,\n        CREDIT\n    }\n\n    struct Transaction{\n        address account;\n        string message;\n        uint amount;\n        uint timestamp;\n        TransactionType txType;\n    }\n\n    mapping(address => Transaction[]) transactions;\n\n    function sendTransaction(address payable to, string memory message) external payable {\n        address currentUser = msg.sender;\n        transactions[currentUser].push(Transaction(to, message, msg.value, block.timestamp, TransactionType.DEBIT));\n        transactions[to].push(Transaction(currentUser, message, msg.value, block.timestamp, TransactionType.CREDIT));\n        to.transfer(msg.value);\n    }\n\n    function getTransactions() external view returns(Transaction[] memory) {\n        return transactions[msg.sender];\n    }\n\n}",
  "sourcePath": "/home/raj/blockchain-projects/transaction-app/smart-contracts/ethtransfer-smart-contract/contracts/ETHTransfer.sol",
  "compiler": {
    "name": "solc",
    "version": "0.8.16+commit.07a7930e.Emscripten.clang"
  },
  "schemaVersion": "3.4.9",
  "updatedAt": "2022-09-08T11:50:53.128Z",
  "networkType": "ethereum",
  "devdoc": {
    "kind": "dev",
    "methods": {},
    "version": 1
  },
  "userdoc": {
    "kind": "user",
    "methods": {},
    "version": 1
  }
}